:020000001D29B8
:100008007C082000A1007D08A00080318B1C2728D7
:100018008B136830FC00E430FD00FD0B1128FC0B4D
:10002800112800000C1925280C143430FC00F1307C
:10003800FD00FD0B1D28FC0B1D28000000000C1006
:10004800A40A8B108B172108FC002008FD0009006A
:1000580020002230FC00F801F901FA01FB01FC0341
:10006800031961280310FB0CFA0CF90CF80CF30CBB
:10007800F20CF10CF00C031C3328FC030319532871
:100088007408F80775080318750FF9077608031838
:10009800760FFA0777080318770FFB0737287408D5
:1000A800F80775080318750FF90776080318760F0F
:0C00B800FA0777080318770FFB07080011
:1000C40012001E00F003031D6228F103031D6228C1
:0200D400080022
:1000D600200025082300910092019513151315148D
:0600E6001308F000080001
:1000EC0020002508230091009201200026082300FF
:1000FC0093001513951315150B08F0008B13553041
:10010C009600AA3096009514F01B8E288B138F281E
:0C011C008B171511951C932890280800E3
:100128002000FB01FA01F9018030F800F10CF00C15
:10013800031CA7287408F90775080318750FFA0730
:100148000318FB0A0310F01FAF287408FA07750894
:100158000318750FFB07FB0CFA0CF90CF80C031CC1
:100168009A287B08F3007A08F2007908F1007808E9
:04017800F00008008B
:10017C0040302000A7001F30A800A901AA01403080
:10018C00F0001F30F1000030F2000030F3002508C1
:10019C00F4002608F500F601F7012C207008A700E2
:1001AC007108A8007208A9007308AA000030730235
:1001BC00031DEA2800307202031DEA280230710286
:1001CC00031DEA28B23070020318ED281C29B23046
:1001DC00A7020230A83B0030A93BAA3B0530F00037
:1001EC0070080319FF28AA36A90CA80CA70CFF3E0F
:1001FC00F7282708F0002808F1002908F2002A083F
:10020C00F3000130A7020030A83BA93BAA3B7008C1
:10021C0071047204730403191C290000000000000F
:0E022C0000000000000000000000FF28080095
:10023A0001302000A2000530A300A401F030210003
:10024A0099003C308C0023008C013C3024008C0047
:10025A0020008C0121009513151310308B0020000B
:10026A008C1D5329A5016B2070082000A2000130C3
:10027A00A5006B2070082000A3000C140B30FB00B3
:10028A002630FC005D30FD00FD0B4929FC0B492995
:10029A00FB0B4929000000000C108A290130A2003A
:1002AA000530A300A5010130A60076200130200008
:1002BA00A5002308A600762020000C140530FB00B8
:1002CA000F30FC00F130FD00FD0B6929FC0B692998
:1002DA00FB0B69290C100330FB000830FC00773057
:1002EA00FD00FD0B7629FC0B7629FB0B76290C14F5
:1002FA000530FB000F30FC00F130FD00FD0B8329B7
:10030A00FC0B8329FB0B83290C108B172208240270
:10031A00031CAE292208A4028C142308F000F10160
:10032A00E830F4000330F50094207008A500710845
:10033A00A600BE208C103D30FB00E130FC003F30AF
:10034A00FD00FD0BA629FC0BA629FB0BA629000024
:10035A0000008C19FC290C1AFC298C1EFC29A30A02
:10036A0064302302031CCB296430A3000C14093027
:10037A00FB001E30FC00E430FD00FD0BC229FC0B23
:10038A00C229FB0BC22900000C10D9290C14033016
:10039A00FB000830FC007730FD00FD0BD229FC0B76
:1003AA00D229FB0BD2290C100130A5002308A60084
:1003BA00762020008C19EF290C1AEF298C1EEF29C0
:1003CA006830FC00E430FD00FD0BE929FC0BE9294B
:1003DA000000DE291530FB004B30FC00BE30FD006A
:1003EA00FD0BF529FC0BF529FB0BF52900008C19EF
:1003FA004A2A0C1E4A2A8C1A4A2AA3032308013CB9
:10040A00031C192A0130A3000C140930FB001E300A
:10041A00FC00E430FD00FD0B102AFC0B102AFB0B3C
:10042A00102A00000C10272A0C140330FB00083095
:10043A00FC007730FD00FD0B202AFC0B202AFB0B69
:10044A00202A0C100130A5002308A60076202000DF
:10045A008C193D2A0C1E3D2A8C1A3D2A6830FC0054
:10046A00E430FD00FD0B372AFC0B372A00002C2A4A
:10047A001530FB004B30FC00BE30FD00FD0B432A5B
:10048A00FC0B432AFB0B432A00008C1D972A0C1AEB
:10049A00972A8C1E972AA20A64302202031C672A12
:1004AA006430A2000C140930FB001E30FC00E4305A
:1004BA00FD00FD0B5E2AFC0B5E2AFB0B5E2A000088
:1004CA000C10752A0C140330FB000830FC0077303E
:1004DA00FD00FD0B6E2AFC0B6E2AFB0B6E2A0C101C
:1004EA00A5012208A600762020008C1D8A2A0C1A53
:1004FA008A2A8C1E8A2A6830FC00E430FD00FD0B33
:10050A00842AFC0B842A0000792A1530FB004B3020
:10051A00FC00BE30FD00FD0B902AFC0B902AFB0B61
:10052A00902A00008C1DE42A0C1EE42A8C1AE42A64
:10053A00A2032208013C031CB42A0130A2000C14B5
:10054A000930FB001E30FC00E430FD00FD0BAB2A35
:10055A00FC0BAB2AFB0BAB2A00000C10C22A0C14B2
:10056A000330FB000830FC007730FD00FD0BBB2A8E
:10057A00FC0BBB2AFB0BBB2A0C10A5012208A60008
:10058A00762020008C1DD72A0C1ED72A8C1AD72A2F
:10059A006830FC00E430FD00FD0BD12AFC0BD12AA7
:1005AA000000C62A1530FB004B30FC00BE30FD00AF
:1005BA00FD0BDD2AFC0BDD2AFB0BDD2A00008B2953
:0205CA00E52A20
:020000040001F9
:04000E00040F1317B1
:020000040001F9
:10E0000001000500FF00FF00FF00FF00FF00FF0010
:10E01000FF00FF00FF00FF00FF00FF00FF00FF0008
:10E02000FF00FF00FF00FF00FF00FF00FF00FF00F8
:10E03000FF00FF00FF00FF00FF00FF00FF00FF00E8
:10E04000FF00FF00FF00FF00FF00FF00FF00FF00D8
:10E05000FF00FF00FF00FF00FF00FF00FF00FF00C8
:10E06000FF00FF00FF00FF00FF00FF00FF00FF00B8
:10E07000FF00FF00FF00FF00FF00FF00FF00FF00A8
:10E08000FF00FF00FF00FF00FF00FF00FF00FF0098
:10E09000FF00FF00FF00FF00FF00FF00FF00FF0088
:10E0A000FF00FF00FF00FF00FF00FF00FF00FF0078
:10E0B000FF00FF00FF00FF00FF00FF00FF00FF0068
:10E0C000FF00FF00FF00FF00FF00FF00FF00FF0058
:10E0D000FF00FF00FF00FF00FF00FF00FF00FF0048
:10E0E000FF00FF00FF00FF00FF00FF00FF00FF0038
:10E0F000FF00FF00FF00FF00FF00FF00FF00FF0028
:10E10000FF00FF00FF00FF00FF00FF00FF00FF0017
:10E11000FF00FF00FF00FF00FF00FF00FF00FF0007
:10E12000FF00FF00FF00FF00FF00FF00FF00FF00F7
:10E13000FF00FF00FF00FF00FF00FF00FF00FF00E7
:10E14000FF00FF00FF00FF00FF00FF00FF00FF00D7
:10E15000FF00FF00FF00FF00FF00FF00FF00FF00C7
:10E16000FF00FF00FF00FF00FF00FF00FF00FF00B7
:10E17000FF00FF00FF00FF00FF00FF00FF00FF00A7
:10E18000FF00FF00FF00FF00FF00FF00FF00FF0097
:10E19000FF00FF00FF00FF00FF00FF00FF00FF0087
:10E1A000FF00FF00FF00FF00FF00FF00FF00FF0077
:10E1B000FF00FF00FF00FF00FF00FF00FF00FF0067
:10E1C000FF00FF00FF00FF00FF00FF00FF00FF0057
:10E1D000FF00FF00FF00FF00FF00FF00FF00FF0047
:10E1E000FF00FF00FF00FF00FF00FF00FF00FF0037
:10E1F000FF00FF00FF00FF00FF00FF00FF00FF0027
:00000001FF

